{
  "contractName": "AlphaCoinCrowdsale",
  "abi": [
    {
      "constant": true,
      "inputs": [],
      "name": "rate",
      "outputs": [
        {
          "name": "",
          "type": "uint256"
        }
      ],
      "payable": false,
      "stateMutability": "view",
      "type": "function"
    },
    {
      "constant": true,
      "inputs": [],
      "name": "cap",
      "outputs": [
        {
          "name": "",
          "type": "uint256"
        }
      ],
      "payable": false,
      "stateMutability": "view",
      "type": "function"
    },
    {
      "constant": true,
      "inputs": [],
      "name": "weiRaised",
      "outputs": [
        {
          "name": "",
          "type": "uint256"
        }
      ],
      "payable": false,
      "stateMutability": "view",
      "type": "function"
    },
    {
      "constant": true,
      "inputs": [
        {
          "name": "",
          "type": "address"
        }
      ],
      "name": "contributions",
      "outputs": [
        {
          "name": "",
          "type": "uint256"
        }
      ],
      "payable": false,
      "stateMutability": "view",
      "type": "function"
    },
    {
      "constant": true,
      "inputs": [],
      "name": "capReached",
      "outputs": [
        {
          "name": "",
          "type": "bool"
        }
      ],
      "payable": false,
      "stateMutability": "view",
      "type": "function"
    },
    {
      "constant": true,
      "inputs": [],
      "name": "wallet",
      "outputs": [
        {
          "name": "",
          "type": "address"
        }
      ],
      "payable": false,
      "stateMutability": "view",
      "type": "function"
    },
    {
      "constant": false,
      "inputs": [],
      "name": "renounceOwnership",
      "outputs": [],
      "payable": false,
      "stateMutability": "nonpayable",
      "type": "function"
    },
    {
      "constant": false,
      "inputs": [
        {
          "name": "_beneficiary",
          "type": "address"
        }
      ],
      "name": "removeFromWhitelist",
      "outputs": [],
      "payable": false,
      "stateMutability": "nonpayable",
      "type": "function"
    },
    {
      "constant": false,
      "inputs": [
        {
          "name": "_beneficiaries",
          "type": "address[]"
        }
      ],
      "name": "addManyToWhitelist",
      "outputs": [],
      "payable": false,
      "stateMutability": "nonpayable",
      "type": "function"
    },
    {
      "constant": true,
      "inputs": [],
      "name": "owner",
      "outputs": [
        {
          "name": "",
          "type": "address"
        }
      ],
      "payable": false,
      "stateMutability": "view",
      "type": "function"
    },
    {
      "constant": true,
      "inputs": [
        {
          "name": "",
          "type": "address"
        }
      ],
      "name": "whitelist",
      "outputs": [
        {
          "name": "",
          "type": "bool"
        }
      ],
      "payable": false,
      "stateMutability": "view",
      "type": "function"
    },
    {
      "constant": true,
      "inputs": [],
      "name": "investorMinCap",
      "outputs": [
        {
          "name": "",
          "type": "uint256"
        }
      ],
      "payable": false,
      "stateMutability": "view",
      "type": "function"
    },
    {
      "constant": false,
      "inputs": [
        {
          "name": "_beneficiary",
          "type": "address"
        }
      ],
      "name": "addToWhitelist",
      "outputs": [],
      "payable": false,
      "stateMutability": "nonpayable",
      "type": "function"
    },
    {
      "constant": false,
      "inputs": [
        {
          "name": "_beneficiary",
          "type": "address"
        }
      ],
      "name": "buyTokens",
      "outputs": [],
      "payable": true,
      "stateMutability": "payable",
      "type": "function"
    },
    {
      "constant": true,
      "inputs": [],
      "name": "investorHardCap",
      "outputs": [
        {
          "name": "",
          "type": "uint256"
        }
      ],
      "payable": false,
      "stateMutability": "view",
      "type": "function"
    },
    {
      "constant": false,
      "inputs": [
        {
          "name": "_newOwner",
          "type": "address"
        }
      ],
      "name": "transferOwnership",
      "outputs": [],
      "payable": false,
      "stateMutability": "nonpayable",
      "type": "function"
    },
    {
      "constant": true,
      "inputs": [],
      "name": "token",
      "outputs": [
        {
          "name": "",
          "type": "address"
        }
      ],
      "payable": false,
      "stateMutability": "view",
      "type": "function"
    },
    {
      "inputs": [
        {
          "name": "_rate",
          "type": "uint256"
        },
        {
          "name": "_wallet",
          "type": "address"
        },
        {
          "name": "_token",
          "type": "address"
        },
        {
          "name": "_cap",
          "type": "uint256"
        }
      ],
      "payable": false,
      "stateMutability": "nonpayable",
      "type": "constructor"
    },
    {
      "payable": true,
      "stateMutability": "payable",
      "type": "fallback"
    },
    {
      "anonymous": false,
      "inputs": [
        {
          "indexed": true,
          "name": "previousOwner",
          "type": "address"
        }
      ],
      "name": "OwnershipRenounced",
      "type": "event"
    },
    {
      "anonymous": false,
      "inputs": [
        {
          "indexed": true,
          "name": "previousOwner",
          "type": "address"
        },
        {
          "indexed": true,
          "name": "newOwner",
          "type": "address"
        }
      ],
      "name": "OwnershipTransferred",
      "type": "event"
    },
    {
      "anonymous": false,
      "inputs": [
        {
          "indexed": true,
          "name": "purchaser",
          "type": "address"
        },
        {
          "indexed": true,
          "name": "beneficiary",
          "type": "address"
        },
        {
          "indexed": false,
          "name": "value",
          "type": "uint256"
        },
        {
          "indexed": false,
          "name": "amount",
          "type": "uint256"
        }
      ],
      "name": "TokenPurchase",
      "type": "event"
    },
    {
      "constant": true,
      "inputs": [
        {
          "name": "_beneficiary",
          "type": "address"
        }
      ],
      "name": "getUserContribution",
      "outputs": [
        {
          "name": "",
          "type": "uint256"
        }
      ],
      "payable": false,
      "stateMutability": "view",
      "type": "function"
    }
  ],
  "bytecode": "0x608060405266071afd498d00006007556802b5e3af16b188000060085534801561002857600080fd5b506040516080806109988339810160409081528151602083015191830151606090930151909290808484846000831161006057600080fd5b600160a060020a038216151561007557600080fd5b600160a060020a038116151561008a57600080fd5b60029290925560018054600160a060020a03928316600160a060020a0319918216179091556000805492909316911617815581116100c757600080fd5b600455505060058054600160a060020a0319163317905550506108a9806100ef6000396000f3006080604052600436106100fb5763ffffffff7c01000000000000000000000000000000000000000000000000000000006000350416632c4e722e8114610106578063355274ea1461012d5780634042b66f1461014257806342e94c90146101575780634f93594514610178578063521eb273146101a1578063715018a6146101d25780638ab1d681146101e75780638c10671c146102085780638da5cb5b146102285780639b19251a1461023d578063b25d7f541461025e578063bb8b2b4714610273578063e43252d714610294578063ec8ac4d8146102b5578063ed5db874146102c9578063f2fde38b146102de578063fc0c546a146102ff575b61010433610314565b005b34801561011257600080fd5b5061011b6103b6565b60408051918252519081900360200190f35b34801561013957600080fd5b5061011b6103bc565b34801561014e57600080fd5b5061011b6103c2565b34801561016357600080fd5b5061011b600160a060020a03600435166103c8565b34801561018457600080fd5b5061018d6103da565b604080519115158252519081900360200190f35b3480156101ad57600080fd5b506101b66103e5565b60408051600160a060020a039092168252519081900360200190f35b3480156101de57600080fd5b506101046103f4565b3480156101f357600080fd5b50610104600160a060020a0360043516610462565b34801561021457600080fd5b50610104600480356024810191013561049a565b34801561023457600080fd5b506101b661050b565b34801561024957600080fd5b5061018d600160a060020a036004351661051a565b34801561026a57600080fd5b5061011b61052f565b34801561027f57600080fd5b5061011b600160a060020a0360043516610535565b3480156102a057600080fd5b50610104600160a060020a0360043516610550565b610104600160a060020a0360043516610314565b3480156102d557600080fd5b5061011b61058b565b3480156102ea57600080fd5b50610104600160a060020a0360043516610591565b34801561030b57600080fd5b506101b66105b4565b34600061032183836105c3565b61032a8261063d565b600354909150610340908363ffffffff61065a16565b60035561034d8382610667565b60408051838152602081018390528151600160a060020a0386169233927f623b3804fa71d67900d064613da8f94b9617215ee90799290593e1745087ad18929081900390910190a361039f8383610671565b6103a7610675565b6103b18383610671565b505050565b60025481565b60045481565b60035481565b60096020526000908152604090205481565b600454600354101590565b600154600160a060020a031681565b600554600160a060020a0316331461040b57600080fd5b600554604051600160a060020a03909116907ff8df31144d9c2f0f6b59d69b8b98abd5459d07f2742c4df920b25aae33c6482090600090a26005805473ffffffffffffffffffffffffffffffffffffffff19169055565b600554600160a060020a0316331461047957600080fd5b600160a060020a03166000908152600660205260409020805460ff19169055565b600554600090600160a060020a031633146104b457600080fd5b5060005b818110156103b1576001600660008585858181106104d257fe5b60209081029290920135600160a060020a0316835250810191909152604001600020805460ff19169115159190911790556001016104b8565b600554600160a060020a031681565b60066020526000908152604090205460ff1681565b60075481565b600160a060020a031660009081526009602052604090205490565b600554600160a060020a0316331461056757600080fd5b600160a060020a03166000908152600660205260409020805460ff19166001179055565b60085481565b600554600160a060020a031633146105a857600080fd5b6105b1816106ae565b50565b600054600160a060020a031681565b6000806105d0848461072c565b600160a060020a03841660009081526009602052604090205491506105fb828463ffffffff61065a16565b9050600754811015801561061157506008548111155b151561061c57600080fd5b600160a060020a039093166000908152600960205260409020929092555050565b60006106546002548361075f90919063ffffffff16565b92915050565b8181018281101561065457fe5b6106718282610788565b5050565b600154604051600160a060020a03909116903480156108fc02916000818181858888f193505050501580156105b1573d6000803e3d6000fd5b600160a060020a03811615156106c357600080fd5b600554604051600160a060020a038084169216907f8be0079c531659141344cd1fd0a4f28419497f9722a3daafe3b4186f6b6457e090600090a36005805473ffffffffffffffffffffffffffffffffffffffff1916600160a060020a0392909216919091179055565b600160a060020a038216600090815260066020526040902054829060ff16151561075557600080fd5b6103b18383610831565b600082151561077057506000610654565b5081810281838281151561078057fe5b041461065457fe5b60008054604080517f40c10f19000000000000000000000000000000000000000000000000000000008152600160a060020a03868116600483015260248201869052915191909216926340c10f1992604480820193602093909283900390910190829087803b1580156107fa57600080fd5b505af115801561080e573d6000803e3d6000fd5b505050506040513d602081101561082457600080fd5b5051151561067157600080fd5b61083b828261085c565b600454600354610851908363ffffffff61065a16565b111561067157600080fd5b600160a060020a038216151561087157600080fd5b80151561067157600080fd00a165627a7a72305820fc26f57668aa238a57d53d9a0121d7d9a5c7e5fce6be00118202e3ed2120367a0029",
  "source": "pragma solidity ^0.4.24;\n\nimport \"openzeppelin-solidity/contracts/crowdsale/Crowdsale.sol\";\nimport \"openzeppelin-solidity/contracts/crowdsale/emission/MintedCrowdsale.sol\";\nimport \"openzeppelin-solidity/contracts/crowdsale/validation/CappedCrowdsale.sol\";\n// import \"openzeppelin-solidity/contracts/crowdsale/validation/TimedCrowdsale.sol\";\nimport \"openzeppelin-solidity/contracts/crowdsale/validation/WhitelistedCrowdsale.sol\";\n\ncontract AlphaCoinCrowdsale is\n    Crowdsale,\n    MintedCrowdsale,\n    CappedCrowdsale,\n    WhitelistedCrowdsale\n{\n    // Track investor contributions\n    uint256 public investorMinCap = 2000000000000000; // 0.002 Eth\n    uint256 public investorHardCap = 50000000000000000000; // 5 Eth\n\n    mapping(address => uint256) public contributions;\n\n    constructor(\n        uint256 _rate,\n        address _wallet,\n        ERC20 _token,\n        uint256 _cap\n    ) public Crowdsale(_rate, _wallet, _token) CappedCrowdsale(_cap) {}\n\n    function getUserContribution(address _beneficiary)\n        public\n        view\n        returns (uint256)\n    {\n        return contributions[_beneficiary];\n    }\n\n    function _preValidatePurchase(address _beneficiary, uint256 _weiAmount)\n        internal\n    {\n        super._preValidatePurchase(_beneficiary, _weiAmount);\n        uint256 _existingContribution = contributions[_beneficiary];\n        uint256 _newContribution = _existingContribution.add(_weiAmount);\n        require(\n            _newContribution >= investorMinCap &&\n                _newContribution <= investorHardCap\n        );\n\n        contributions[_beneficiary] = _newContribution;\n    }\n}\n",
  "sourcePath": "/Users/pushpitbhardwaj/Desktop/h4CK3R/blockchain/ico/contracts/AlphaCoinCrowdsale.sol",
  "compiler": {
    "name": "solc",
    "version": "0.4.24+commit.e67f0147.Emscripten.clang"
  },
  "schemaVersion": "3.0.23",
  "updatedAt": "2021-05-19T12:51:16.489Z",
  "devdoc": {
    "methods": {
      "addManyToWhitelist(address[])": {
        "details": "Adds list of addresses to whitelist. Not overloaded due to limitations with truffle testing.",
        "params": {
          "_beneficiaries": "Addresses to be added to the whitelist"
        }
      },
      "addToWhitelist(address)": {
        "details": "Adds single address to whitelist.",
        "params": {
          "_beneficiary": "Address to be added to the whitelist"
        }
      },
      "buyTokens(address)": {
        "details": "low level token purchase ***DO NOT OVERRIDE***",
        "params": {
          "_beneficiary": "Address performing the token purchase"
        }
      },
      "capReached()": {
        "details": "Checks whether the cap has been reached.",
        "return": "Whether the cap was reached"
      },
      "removeFromWhitelist(address)": {
        "details": "Removes single address from whitelist.",
        "params": {
          "_beneficiary": "Address to be removed to the whitelist"
        }
      },
      "renounceOwnership()": {
        "details": "Allows the current owner to relinquish control of the contract."
      },
      "transferOwnership(address)": {
        "details": "Allows the current owner to transfer control of the contract to a newOwner.",
        "params": {
          "_newOwner": "The address to transfer ownership to."
        }
      }
    }
  },
  "userdoc": {
    "methods": {}
  }
}