{
  "contractName": "AlphaCoinCrowdsale",
  "abi": [
    {
      "constant": true,
      "inputs": [],
      "name": "rate",
      "outputs": [
        {
          "name": "",
          "type": "uint256"
        }
      ],
      "payable": false,
      "stateMutability": "view",
      "type": "function"
    },
    {
      "constant": true,
      "inputs": [],
      "name": "cap",
      "outputs": [
        {
          "name": "",
          "type": "uint256"
        }
      ],
      "payable": false,
      "stateMutability": "view",
      "type": "function"
    },
    {
      "constant": true,
      "inputs": [],
      "name": "weiRaised",
      "outputs": [
        {
          "name": "",
          "type": "uint256"
        }
      ],
      "payable": false,
      "stateMutability": "view",
      "type": "function"
    },
    {
      "constant": true,
      "inputs": [
        {
          "name": "",
          "type": "address"
        }
      ],
      "name": "contributions",
      "outputs": [
        {
          "name": "",
          "type": "uint256"
        }
      ],
      "payable": false,
      "stateMutability": "view",
      "type": "function"
    },
    {
      "constant": true,
      "inputs": [],
      "name": "tokenSalePercentage",
      "outputs": [
        {
          "name": "",
          "type": "uint256"
        }
      ],
      "payable": false,
      "stateMutability": "view",
      "type": "function"
    },
    {
      "constant": true,
      "inputs": [],
      "name": "capReached",
      "outputs": [
        {
          "name": "",
          "type": "bool"
        }
      ],
      "payable": false,
      "stateMutability": "view",
      "type": "function"
    },
    {
      "constant": true,
      "inputs": [],
      "name": "wallet",
      "outputs": [
        {
          "name": "",
          "type": "address"
        }
      ],
      "payable": false,
      "stateMutability": "view",
      "type": "function"
    },
    {
      "constant": true,
      "inputs": [],
      "name": "foundersPercentage",
      "outputs": [
        {
          "name": "",
          "type": "uint256"
        }
      ],
      "payable": false,
      "stateMutability": "view",
      "type": "function"
    },
    {
      "constant": false,
      "inputs": [],
      "name": "renounceOwnership",
      "outputs": [],
      "payable": false,
      "stateMutability": "nonpayable",
      "type": "function"
    },
    {
      "constant": true,
      "inputs": [],
      "name": "foundationPercentage",
      "outputs": [
        {
          "name": "",
          "type": "uint256"
        }
      ],
      "payable": false,
      "stateMutability": "view",
      "type": "function"
    },
    {
      "constant": false,
      "inputs": [
        {
          "name": "_beneficiary",
          "type": "address"
        }
      ],
      "name": "removeFromWhitelist",
      "outputs": [],
      "payable": false,
      "stateMutability": "nonpayable",
      "type": "function"
    },
    {
      "constant": false,
      "inputs": [
        {
          "name": "_beneficiaries",
          "type": "address[]"
        }
      ],
      "name": "addManyToWhitelist",
      "outputs": [],
      "payable": false,
      "stateMutability": "nonpayable",
      "type": "function"
    },
    {
      "constant": true,
      "inputs": [],
      "name": "owner",
      "outputs": [
        {
          "name": "",
          "type": "address"
        }
      ],
      "payable": false,
      "stateMutability": "view",
      "type": "function"
    },
    {
      "constant": true,
      "inputs": [
        {
          "name": "",
          "type": "address"
        }
      ],
      "name": "whitelist",
      "outputs": [
        {
          "name": "",
          "type": "bool"
        }
      ],
      "payable": false,
      "stateMutability": "view",
      "type": "function"
    },
    {
      "constant": true,
      "inputs": [],
      "name": "investorMinCap",
      "outputs": [
        {
          "name": "",
          "type": "uint256"
        }
      ],
      "payable": false,
      "stateMutability": "view",
      "type": "function"
    },
    {
      "constant": true,
      "inputs": [],
      "name": "stage",
      "outputs": [
        {
          "name": "",
          "type": "uint8"
        }
      ],
      "payable": false,
      "stateMutability": "view",
      "type": "function"
    },
    {
      "constant": false,
      "inputs": [
        {
          "name": "_beneficiary",
          "type": "address"
        }
      ],
      "name": "addToWhitelist",
      "outputs": [],
      "payable": false,
      "stateMutability": "nonpayable",
      "type": "function"
    },
    {
      "constant": false,
      "inputs": [
        {
          "name": "_beneficiary",
          "type": "address"
        }
      ],
      "name": "buyTokens",
      "outputs": [],
      "payable": true,
      "stateMutability": "payable",
      "type": "function"
    },
    {
      "constant": true,
      "inputs": [],
      "name": "investorHardCap",
      "outputs": [
        {
          "name": "",
          "type": "uint256"
        }
      ],
      "payable": false,
      "stateMutability": "view",
      "type": "function"
    },
    {
      "constant": false,
      "inputs": [
        {
          "name": "_newOwner",
          "type": "address"
        }
      ],
      "name": "transferOwnership",
      "outputs": [],
      "payable": false,
      "stateMutability": "nonpayable",
      "type": "function"
    },
    {
      "constant": true,
      "inputs": [],
      "name": "partnersPercentage",
      "outputs": [
        {
          "name": "",
          "type": "uint256"
        }
      ],
      "payable": false,
      "stateMutability": "view",
      "type": "function"
    },
    {
      "constant": true,
      "inputs": [],
      "name": "token",
      "outputs": [
        {
          "name": "",
          "type": "address"
        }
      ],
      "payable": false,
      "stateMutability": "view",
      "type": "function"
    },
    {
      "inputs": [
        {
          "name": "_rate",
          "type": "uint256"
        },
        {
          "name": "_wallet",
          "type": "address"
        },
        {
          "name": "_token",
          "type": "address"
        },
        {
          "name": "_cap",
          "type": "uint256"
        }
      ],
      "payable": false,
      "stateMutability": "nonpayable",
      "type": "constructor"
    },
    {
      "payable": true,
      "stateMutability": "payable",
      "type": "fallback"
    },
    {
      "anonymous": false,
      "inputs": [
        {
          "indexed": true,
          "name": "previousOwner",
          "type": "address"
        }
      ],
      "name": "OwnershipRenounced",
      "type": "event"
    },
    {
      "anonymous": false,
      "inputs": [
        {
          "indexed": true,
          "name": "previousOwner",
          "type": "address"
        },
        {
          "indexed": true,
          "name": "newOwner",
          "type": "address"
        }
      ],
      "name": "OwnershipTransferred",
      "type": "event"
    },
    {
      "anonymous": false,
      "inputs": [
        {
          "indexed": true,
          "name": "purchaser",
          "type": "address"
        },
        {
          "indexed": true,
          "name": "beneficiary",
          "type": "address"
        },
        {
          "indexed": false,
          "name": "value",
          "type": "uint256"
        },
        {
          "indexed": false,
          "name": "amount",
          "type": "uint256"
        }
      ],
      "name": "TokenPurchase",
      "type": "event"
    },
    {
      "constant": true,
      "inputs": [
        {
          "name": "_beneficiary",
          "type": "address"
        }
      ],
      "name": "getUserContribution",
      "outputs": [
        {
          "name": "",
          "type": "uint256"
        }
      ],
      "payable": false,
      "stateMutability": "view",
      "type": "function"
    },
    {
      "constant": false,
      "inputs": [
        {
          "name": "_stage",
          "type": "uint256"
        }
      ],
      "name": "setCrowdsaleStage",
      "outputs": [],
      "payable": false,
      "stateMutability": "nonpayable",
      "type": "function"
    }
  ],
  "bytecode": "0x608060405266071afd498d00006007556802b5e3af16b1880000600855600a805460ff191681556046600b55600c819055600d819055600e5534801561004457600080fd5b50604051608080610b438339810160409081528151602083015191830151606090930151909290808484846000831161007c57600080fd5b600160a060020a038216151561009157600080fd5b600160a060020a03811615156100a657600080fd5b60029290925560018054600160a060020a03928316600160a060020a0319918216179091556000805492909316911617815581116100e357600080fd5b600455505060058054600160a060020a031916331790555050610a388061010b6000396000f30060806040526004361061013d5763ffffffff7c01000000000000000000000000000000000000000000000000000000006000350416632c4e722e8114610148578063355274ea1461016f5780634042b66f1461018457806342e94c901461019957806346daa242146101ba5780634f935945146101cf578063521eb273146101f857806353c08ea214610229578063715018a61461023e578063864329e3146102535780638ab1d681146102685780638c10671c146102895780638da5cb5b146102a95780639b19251a146102be578063a997f82f146102df578063b25d7f54146102f7578063bb8b2b471461030c578063c040e6b81461032d578063e43252d714610366578063ec8ac4d814610387578063ed5db8741461039b578063f2fde38b146103b0578063f45b9bed146103d1578063fc0c546a146103e6575b610146336103fb565b005b34801561015457600080fd5b5061015d61049d565b60408051918252519081900360200190f35b34801561017b57600080fd5b5061015d6104a3565b34801561019057600080fd5b5061015d6104a9565b3480156101a557600080fd5b5061015d600160a060020a03600435166104af565b3480156101c657600080fd5b5061015d6104c1565b3480156101db57600080fd5b506101e46104c7565b604080519115158252519081900360200190f35b34801561020457600080fd5b5061020d6104d2565b60408051600160a060020a039092168252519081900360200190f35b34801561023557600080fd5b5061015d6104e1565b34801561024a57600080fd5b506101466104e7565b34801561025f57600080fd5b5061015d610555565b34801561027457600080fd5b50610146600160a060020a036004351661055b565b34801561029557600080fd5b506101466004803560248101910135610593565b3480156102b557600080fd5b5061020d610604565b3480156102ca57600080fd5b506101e4600160a060020a0360043516610613565b3480156102eb57600080fd5b50610146600435610628565b34801561030357600080fd5b5061015d6106b2565b34801561031857600080fd5b5061015d600160a060020a03600435166106b8565b34801561033957600080fd5b506103426106d3565b6040518082600181111561035257fe5b60ff16815260200191505060405180910390f35b34801561037257600080fd5b50610146600160a060020a03600435166106dc565b610146600160a060020a03600435166103fb565b3480156103a757600080fd5b5061015d610717565b3480156103bc57600080fd5b50610146600160a060020a036004351661071d565b3480156103dd57600080fd5b5061015d61073d565b3480156103f257600080fd5b5061020d610743565b3460006104088383610752565b610411826107cc565b600354909150610427908363ffffffff6107e916565b60035561043483826107f6565b60408051838152602081018390528151600160a060020a0386169233927f623b3804fa71d67900d064613da8f94b9617215ee90799290593e1745087ad18929081900390910190a36104868383610800565b61048e610804565b6104988383610800565b505050565b60025481565b60045481565b60035481565b60096020526000908152604090205481565b600b5481565b600454600354101590565b600154600160a060020a031681565b600c5481565b600554600160a060020a031633146104fe57600080fd5b600554604051600160a060020a03909116907ff8df31144d9c2f0f6b59d69b8b98abd5459d07f2742c4df920b25aae33c6482090600090a26005805473ffffffffffffffffffffffffffffffffffffffff19169055565b600d5481565b600554600160a060020a0316331461057257600080fd5b600160a060020a03166000908152600660205260409020805460ff19169055565b600554600090600160a060020a031633146105ad57600080fd5b5060005b81811015610498576001600660008585858181106105cb57fe5b60209081029290920135600160a060020a0316835250810191909152604001600020805460ff19169115159190911790556001016105b1565b600554600160a060020a031681565b60066020526000908152604090205460ff1681565b600554600160a060020a0316331461063f57600080fd5b80151561065557600a805460ff1916905561066c565b806001141561066c57600a805460ff191660011790555b6000600a5460ff16600181111561067f57fe5b1415610690576101f46002556106af565b6001600a5460ff1660018111156106a357fe5b14156106af5760fa6002555b50565b60075481565b600160a060020a031660009081526009602052604090205490565b600a5460ff1681565b600554600160a060020a031633146106f357600080fd5b600160a060020a03166000908152600660205260409020805460ff19166001179055565b60085481565b600554600160a060020a0316331461073457600080fd5b6106af8161083d565b600e5481565b600054600160a060020a031681565b60008061075f84846108bb565b600160a060020a038416600090815260096020526040902054915061078a828463ffffffff6107e916565b905060075481101580156107a057506008548111155b15156107ab57600080fd5b600160a060020a039093166000908152600960205260409020929092555050565b60006107e3600254836108ee90919063ffffffff16565b92915050565b818101828110156107e357fe5b6108008282610917565b5050565b600154604051600160a060020a03909116903480156108fc02916000818181858888f193505050501580156106af573d6000803e3d6000fd5b600160a060020a038116151561085257600080fd5b600554604051600160a060020a038084169216907f8be0079c531659141344cd1fd0a4f28419497f9722a3daafe3b4186f6b6457e090600090a36005805473ffffffffffffffffffffffffffffffffffffffff1916600160a060020a0392909216919091179055565b600160a060020a038216600090815260066020526040902054829060ff1615156108e457600080fd5b61049883836109c0565b60008215156108ff575060006107e3565b5081810281838281151561090f57fe5b04146107e357fe5b60008054604080517f40c10f19000000000000000000000000000000000000000000000000000000008152600160a060020a03868116600483015260248201869052915191909216926340c10f1992604480820193602093909283900390910190829087803b15801561098957600080fd5b505af115801561099d573d6000803e3d6000fd5b505050506040513d60208110156109b357600080fd5b5051151561080057600080fd5b6109ca82826109eb565b6004546003546109e0908363ffffffff6107e916565b111561080057600080fd5b600160a060020a0382161515610a0057600080fd5b80151561080057600080fd00a165627a7a72305820cd7f9cad7d9972daffb676e1721e49924ff0996111c425ad787f34715f720eb00029",
  "source": "pragma solidity ^0.4.24;\n\nimport \"openzeppelin-solidity/contracts/token/ERC20/ERC20.sol\";\nimport \"openzeppelin-solidity/contracts/token/ERC20/PausableToken.sol\";\nimport \"openzeppelin-solidity/contracts/token/ERC20/MintableToken.sol\";\nimport \"openzeppelin-solidity/contracts/crowdsale/Crowdsale.sol\";\nimport \"openzeppelin-solidity/contracts/crowdsale/emission/MintedCrowdsale.sol\";\nimport \"openzeppelin-solidity/contracts/crowdsale/validation/CappedCrowdsale.sol\";\nimport \"openzeppelin-solidity/contracts/crowdsale/validation/TimedCrowdsale.sol\";\nimport \"openzeppelin-solidity/contracts/crowdsale/distribution/RefundableCrowdsale.sol\";\nimport \"openzeppelin-solidity/contracts/crowdsale/validation/WhitelistedCrowdsale.sol\";\n\ncontract AlphaCoinCrowdsale is\n    Crowdsale,\n    MintedCrowdsale,\n    CappedCrowdsale,\n    WhitelistedCrowdsale\n{\n    // Track investor contributions\n    uint256 public investorMinCap = 2000000000000000; // 0.002 Eth\n    uint256 public investorHardCap = 50000000000000000000; // 5 Eth\n    mapping(address => uint256) public contributions;\n\n    // Crowdsale stages\n    enum CrowdsaleStage {PreICO, ICO}\n    // default to presale stage\n    CrowdsaleStage public stage = CrowdsaleStage.PreICO;\n\n    // Token Distribution\n    uint256 public tokenSalePercentage = 70;\n    uint256 public foundersPercentage = 10;\n    uint256 public foundationPercentage = 10;\n    uint256 public partnersPercentage = 10;\n\n    constructor(\n        uint256 _rate,\n        address _wallet,\n        ERC20 _token,\n        uint256 _cap\n    ) public Crowdsale(_rate, _wallet, _token) CappedCrowdsale(_cap) {}\n\n    function getUserContribution(address _beneficiary)\n        public\n        view\n        returns (uint256)\n    {\n        return contributions[_beneficiary];\n    }\n\n    function setCrowdsaleStage(uint256 _stage) public onlyOwner {\n        if (uint256(CrowdsaleStage.PreICO) == _stage) {\n            stage = CrowdsaleStage.PreICO;\n        } else if (uint256(CrowdsaleStage.ICO) == _stage) {\n            stage = CrowdsaleStage.ICO;\n        }\n\n        if (stage == CrowdsaleStage.PreICO) {\n            rate = 500;\n        } else if (stage == CrowdsaleStage.ICO) {\n            rate = 250;\n        }\n    }\n\n    function _preValidatePurchase(address _beneficiary, uint256 _weiAmount)\n        internal\n    {\n        super._preValidatePurchase(_beneficiary, _weiAmount);\n        uint256 _existingContribution = contributions[_beneficiary];\n        uint256 _newContribution = _existingContribution.add(_weiAmount);\n        require(\n            _newContribution >= investorMinCap &&\n                _newContribution <= investorHardCap\n        );\n\n        contributions[_beneficiary] = _newContribution;\n    }\n}\n",
  "sourcePath": "/Users/pushpitbhardwaj/Desktop/h4CK3R/blockchain/ico/contracts/AlphaCoinCrowdsale.sol",
  "compiler": {
    "name": "solc",
    "version": "0.4.24+commit.e67f0147.Emscripten.clang"
  },
  "schemaVersion": "3.0.23",
  "updatedAt": "2021-05-20T01:31:42.216Z",
  "networkType": "ethereum",
  "devdoc": {
    "methods": {
      "addManyToWhitelist(address[])": {
        "details": "Adds list of addresses to whitelist. Not overloaded due to limitations with truffle testing.",
        "params": {
          "_beneficiaries": "Addresses to be added to the whitelist"
        }
      },
      "addToWhitelist(address)": {
        "details": "Adds single address to whitelist.",
        "params": {
          "_beneficiary": "Address to be added to the whitelist"
        }
      },
      "buyTokens(address)": {
        "details": "low level token purchase ***DO NOT OVERRIDE***",
        "params": {
          "_beneficiary": "Address performing the token purchase"
        }
      },
      "capReached()": {
        "details": "Checks whether the cap has been reached.",
        "return": "Whether the cap was reached"
      },
      "removeFromWhitelist(address)": {
        "details": "Removes single address from whitelist.",
        "params": {
          "_beneficiary": "Address to be removed to the whitelist"
        }
      },
      "renounceOwnership()": {
        "details": "Allows the current owner to relinquish control of the contract."
      },
      "transferOwnership(address)": {
        "details": "Allows the current owner to transfer control of the contract to a newOwner.",
        "params": {
          "_newOwner": "The address to transfer ownership to."
        }
      }
    }
  },
  "userdoc": {
    "methods": {}
  }
}